:020000040800F2
:1000000000200020352600088526000885260008E7
:1000100085260008852600088526000800000000C7
:10002000000000000000000000000000852600081D
:1000300085260008000000008526000885260008A7
:1000400085260008852600088526000885260008E4
:100050008526000885260008091E00088526000858
:1000600085260008852600088526000885260008C4
:1000700085260008852600088526000885260008B4
:1000800085260008852600088526000885260008A4
:100090008526000885260008852600088526000894
:1000A0008526000885260008852600088526000884
:1000B0008526000885260008852600088526000874
:1000C0008526000885260008852600088526000864
:1000D0008526000885260008852600088526000854
:1000E00085260008351E000885260008852600089C
:1000F000852600080000000000000000000000004D
:0C01000000000000000000005FF808F1A3
:10010C00044B00221A605A609A60DA60024A5A6103
:10011C007047C04600040140FFFFFF00837910B513
:10012C00002B1ED0164B01681C68CA4314401C607F
:10013C005C6822405A600279D2181468214311601D
:10014C0002689C68D1430C409C60DC682140D960FB
:10015C00417910290DD00A4BC9180B681A430A6053
:10016C0006E00379064C01681B191A688A431A6069
:10017C0010BD996811439960D9680A43DA60F7E7B2
:10018C000004014000230C2203600371427183714F
:10019C007047C046024B1A69104318617047C0463D
:1001AC0000040140034B5B691840431E9841C0B2E8
:1001BC007047C04600040140014B58617047C0466F
:1001CC0000040140054B19685A690023024203D010
:1001DC000840411E8841C3B2181C704700040140FE
:1001EC00014B58617047C0460004014008B5304BC4
:1001FC0098421ED02F4B984224D02F4B98422AD095
:10020C002E4B984230D02E4B984236D02D4B9842E4
:10021C003CD02D4B984242D02C4B984200D008BD7C
:10022C002020012100F064FC2020002100F060FC63
:10023C00F5E70120012100F05BFC0120002100F01A
:10024C0057FCECE70220012100F052FC02200021B7
:10025C0000F04EFCE3E70420012100F049FC0420EF
:10026C00002100F045FCDAE70820012100F040FCF9
:10027C000820002100F03CFCD1E71020012100F007
:10028C0037FC1020002100F033FCC8E7402001218E
:10029C0000F02EFC4020002100F02AFCBFE780205B
:1002AC00012100F025FC8020002100F021FCB6E7A4
:1002BC00000002400004024000080240000C024012
:1002CC000010024000180240001C024000140240C2
:1002DC00F0B544465F4656464D46F0B48C460F6822
:1002EC00032183B0002400230126884603E0013358
:1002FC000234102B25D0321C9A403D1C15409542DF
:10030C00F5D142460168A240D243114001606146DA
:10031C000979934602680191A1401143016001994A
:10032C000139012914D9C1685A460A40C260654690
:10033C00EA79C168A2400A430133C2600234102B2F
:10034C00D9D103B03CBC90469946A246AB46F0BD11
:10035C0081685A4611408160624652798168A24098
:10036C001143816081886246A94381809179858897
:10037C009940294389B28180D5E7C046034B03607D
:10038C000023037143718371C3717047FFFF000039
:10039C00802382B05B020193019B0B430193019B71
:1003AC00C361C161019BC361C3690193C3690193BB
:1003BC0002B07047008A0840431E9841C0B2704793
:1003CC00008A80B27047C046808A0840431E98411C
:1003DC00C0B27047808A80B27047C04601837047B4
:1003EC0041837047002A01D1418370470183FCE7A8
:1003FC0081827047838A59408182704707230B4062
:10040C00C9088900401810B5016A9B000F249C4054
:10041C00A1430162016A9A40131C0B43036210BD95
:10042C0010B58024A400201C012100F079FB201CB5
:10043C00002100F075FB10BD10B50E4C0E4B626820
:10044C00134063600168636842680B431343636045
:10045C002021A368074A1942FBD013687E218B43E5
:10046C001360816813680B43C1680B4301690B432C
:10047C00136010BD00240040FFFF03FC0023036049
:10048C0043608360C36003617047C046014B1860D2
:10049C007047C04600800442024920228B681A42F1
:1004AC00FCD0704700240040014B18607047C046D8
:1004BC0080800442014B18607047C0461C80044287
:1004CC00044B70215A688A435A605A68104358602A
:1004DC007047C04600240040044B054A59680A4046
:1004EC005A605A68104358607047C0460024004058
:1004FC007FFCFFFF054B10B5054A5C6822405A6033
:10050C005A6811430843586010BDC046002400408F
:10051C00FF1FFCFF044B054A59680A405A605A6891
:10052C00104358607047C04600240040FFE3FFFFB3
:10053C00024B8000C01841607047C0461024004038
:10054C00014B01221A60704708810442044B5A681F
:10055C00002902D182435A60704710435860FBE770
:10056C0000240040034B9B681840431E9841C0B2C6
:10057C007047C04600240040014BD8607047C0460D
:10058C0000240040054B99685A680023024203D0AE
:10059C000840411E8841C3B2181C7047002400401B
:1005AC00014BD8607047C04600240040024B1843F2
:1005BC00024BD8607047C0460000FA0500ED00E021
:1005CC00C378002B0BD103781F2259091340012249
:1005DC009A40131C2031134A89008B507047124BE0
:1005EC000421DA68E023DB0093431B0A4278C91A22
:1005FC00C9B28A40D1B20F221A41131C82781A4018
:10060C000A430378094912015B18D2B21A700378B5
:10061C001F225909134001229A40131C014A8900D8
:10062C008B50DBE700E100E000ED00E000E400E0CF
:10063C00024B1940024B08439860704780FFFF1F24
:10064C0000ED00E0044B1A69002902D182431A61C3
:10065C00704710431861FBE700ED00E0054B1A688A
:10066C00042803D004218A431A6070471043186091
:10067C00FBE7C04610E000E010B580246405201CA8
:10068C00012100F04DFA201C002100F049FA10BDA8
:10069C00014B18607047C04620000E42034BE0210E
:1006AC001A688A43104318607047C04600700040B7
:1006BC00014B18607047C04610000E4282B00023F8
:1006CC000193034BC0180190019B196002B0704755
:1006DC00A0000E42014B18607047C04628000E4225
:1006EC00014B18607047C04624000E42044B054A6B
:1006FC0019680A4010430C22904318607047C0469A
:10070C0000700040FFE7FFFF0A4B1968002807D173
:10071C00094A0A401A601A6801218A431A60704714
:10072C0001220A431A6019688022D2010A431A6016
:10073C00F5E7C04600700040FFBFFFFF084B10B547
:10074C001A680324A24310431860064B04201A694C
:10075C0082431A61012901D020BF10BD30BFFCE7D4
:10076C000070004000ED00E00B4B10B51A6803243C
:10077C00A24310431860094B0422186902431A6102
:10078C00012906D020BF054B04211A698A431A613E
:10079C0010BD30BFF7E7C0460070004000ED00E030
:1007AC00074B042219681143196018680221014390
:1007BC001960044B19690A431A6130BF7047C0466F
:1007CC000070004000ED00E0034B5B681840431ED6
:1007DC009841C0B27047C04600700040024B800088
:1007EC001A68104318607047007000400C4B802250
:1007FC00196852000A431A6099680A4A0A409A60BA
:10080C001968094A0A401A601968084A0A401A60AD
:10081C009968074A0A409A600022DA607047C0461D
:10082C00003802400CC0FF88FEFFFEEEFFFFFBFF0E
:10083C00FFFF02FF024B00221A7018707047C0466F
:10084C0002380240002382B001938022A0230B497E
:10085C009202D8000B6813420BD1019B0133019318
:10086C00019B8342F6D1054B18688003C00F02B080
:10087C007047019B01330193019BF4E70038024060
:10088C00014B18707047C04607380240034B044AAE
:10089C0059680A40104358607047C04600380240FF
:1008AC00FF1FFFFF014B18607047C04620004742F6
:1008BC00034B044A596800020A40104358607047C1
:1008CC0000380240FFE0FFFF014B18607047C04644
:1008DC0000004742024B00221A7018707047C04645
:1008EC0035380240014B18607047C04680064742BD
:1008FC001043024B014319707047C0460A3802403E
:10090C00014B18607047C04660004742014B1860AD
:10091C007047C04670004742014B18607047C04694
:10092C00AC064742014B0843187070470B38024025
:10093C00034B03219A688A43104398607047C04662
:10094C0000380240024B0C209B6818407047C04690
:10095C0000380240034BF0219A688A431043986098
:10096C007047C04600380240034B044A99680A405D
:10097C00104398607047C04600380240FFF8FFFFF4
:10098C00034B044A9968C0000A40104398607047B2
:10099C0000380240FFC7FFFF294A38B593680C2185
:1009AC00041C0B40042B41D031D9082B14D00C2B38
:1009BC0039D19368234D91689B021B0FEB5C0902A4
:1009CC009268890FDBB20131D00333D41E485843EF
:1009DC0001F074F8206002E01C481A4D2060184B9E
:1009EC009A681206120FAA18127BD04060609A689F
:1009FC00011C5205520FAA18127BD140A1609B68B2
:100A0C009B045B0FED182B7BD840E06038BD002BAE
:100A1C0009D153681B045B0F8020013300029840FE
:100A2C002060084DDBE7064B5B68F3E70648054D95
:100A3C002060D4E70548584301F040F82060CEE729
:100A4C0000380240000000200024F40000127A005C
:100A5C00C0239B02021C10B51A409A4208D1094BC4
:100A6C0009491C682140C024E40520400843186053
:100A7C00044B0649586B01405963596B0A435A633E
:100A8C0010BDC04600380240FFFFFF9FFFFFFCFF78
:100A9C00014B18607047C046D8064742014B18609E
:100AAC007047C046DC064742044BDA69002902D184
:100ABC008243DA6170471043D861FBE7003802408B
:100ACC00044B1A6A002902D182431A627047104300
:100ADC001862FBE700380240044B5A6A002902D125
:100AEC0082435A62704710435862FBE70038024059
:100AFC00044B1A69002902D182431A6170471043D2
:100B0C001861FBE700380240044B5A69002902D1F6
:100B1C0082435A61704710435861FBE7003802402A
:100B2C00044B9A69002902D182439A6170471043A1
:100B3C009861FBE700380240044B9A6A002902D105
:100B4C0082439A62704710439862FBE70038024078
:100B5C00044BDA6A002902D18243DA6270471043EF
:100B6C00D862FBE700380240044B1A6B002902D113
:100B7C0082431A63704710431863FBE70038024046
:100B8C00044B1A78002902D182431A707047104323
:100B9C001870FBE70D3802404309012B08D0064BB7
:100BAC005B6B1F221040C340181C01231840704778
:100BBC00014B1B68F5E7C04600380240034B80220E
:100BCC00596B52040A435A637047C04600380240BE
:100BDC00034BDB681840431E9841C0B27047C046B7
:100BEC0000380240014B18707047C0460E38024066
:100BFC0000217F22FF230EC07047C046002805D17C
:100C0C00044BCA225A6253225A627047014BFF228C
:100C1C005A62FAE70028004010B5002382B00F4C4E
:100C2C000193E36801205A0615D401235B4280210D
:100C3C00E3604020890101E0002A08D1E368021C2E
:100C4C001A40019B01330193019B8B42F4D1034B5E
:100C5C00D8684006C00F02B010BDC0460028004046
:100C6C0038B5124CCA23636253236362051CFFF729
:100C7C00D3FF0023002813D0A36840229343A36022
:100C8C00A3682A681343A360AB6823616B6822696D
:100C9C001B0413432361E36880229343E360012325
:100CAC00024AFF21181C516238BDC0460028004082
:100CBC00024B8021DA688A43DA60704700280040D2
:100CCC0010B50023104C82B00193CA2363625323E6
:100CDC006362E368A02293438021E3602020090231
:100CEC0001E0002A08D1E368021C1A40019B013381
:100CFC000193019B8B42F4D1034BFF22D8685A62BB
:100D0C008006C00F02B010BD0028004030B5214C49
:100D1C0083B0CA2300250195636253236362FFF7F6
:100D2C007BFF002819D01C4B25606360A368072249
:100D3C0013408021A3600420890101E0002A08D11E
:100D4C00E368021C1A40019B01330193019B8B4207
:100D5C00F4D1104BDA68510705D400200D4BFF225B
:100D6C005A6203B030BD0D499A6800229A605961ED
:100D7C000B4919619A61DA611A62DA62DA635A64B0
:100D8C009A64DA601A64FFF79BFF431E9841C0B265
:100D9C00E4E7C0460028004001210000FFFF0000EE
:100DAC00FF007F0038B5104CCA2363625323636283
:100DBC00051CFFF731FF021C0020002A0BD0002D70
:100DCC000DD1A36810229343A360074B8021DA68EE
:100DDC0001208A43DA60044AFF21516238BDA268BF
:100DEC0010231343A360F0E700280040094BCA22EC
:100DFC005A6253225A62002807D19A68DF210A40AE
:100E0C009A60044BFF225A627047996820220A4369
:100E1C009A60F6E700280040334B70B59B680028B9
:100E2C0030D140251D405BD1CD700B780024092BAF
:100E3C0007D90A3B0134DBB2E4B2092BF9D82401FF
:100E4C00E4B2487823431B040024092807D90A3844
:100E5C000134C0B2E4B20928F9D82401E4B28A788A
:100E6C00204300020021092A07D90A3A0131D2B2E3
:100E7C00C9B2092AF9D80901C9B21D4305430A436D
:100E8C0015430BE04022134027D1CB700D784A78E4
:100E9C002D04120215438A7815431D43124CCA26A1
:100EAC00666253266662FFF7B7FE061C0020002E12
:100EBC000FD00E4B80221D402560E3680120934328
:100ECC00E360A3689A0604D4FFF7FAFE431E984128
:100EDC00C0B2054BFF225A6270BDCB781B04D5E71C
:100EEC00CD782D04A1E7C046002800407F7F7F000D
:100EFC000023C3700370437083707047144BF0B5BC
:100F0C001B6880277F25FF039C025A041D403B4031
:100F1C00A40E520E1B0C0C704A708D70CB700028F6
:100F2C0015D1230998001B1858000F231C400419D5
:100F3C0010090C708400001940001A402E09821808
:100F4C004A70B200B61876001D4075198D70F0BD50
:100F5C0000280040014B986A5B68704700280040ED
:100F6C0038B5002836D14B7810221A4203D093435F
:100F7C000A33DBB24B70CA78092A55D900200A3AD9
:100F8C000130D2B2C0B2092AF9D80001C4B222434E
:100F9C0012040024092B07D90A3B0134DBB2E4B25A
:100FAC00092BF9D82401E4B2887823431B020928C1
:100FBC003CD900240A380134C0B2E4B20928F9D86B
:100FCC002401E5B20978141C49030C431C43284343
:100FDC00044309E0CC784B7824041B021C438B7827
:100FEC001C430B785B031C43114DCA2169625321CE
:100FFC006962FFF711FE011C002000290AD00D4880
:10100C00802204406C60EB6801209343EB60AB687A
:10101C009A0603D5064BFF225A6238BDFFF750FEE5
:10102C00431E9841C0B2F5E70024B0E70025C9E79C
:10103C00002800403FFFFF000123037083704370C2
:10104C000023C3707047C046134B70B55B683F25D7
:10105C001C02DA041D401B04240ED20E5B0FCC7054
:10106C004A708D700B70002815D1230998001B183D
:10107C0058000F231C4004191009CC70840000196F
:10108C0040001A402E0982184A70B200B618760039
:10109C001D4075198D7070BD002800403B4BF0B59C
:1010AC009B68002845D140261E4066D1D670137827
:1010BC000020092B07D90A3B0130DBB2C0B2092B47
:1010CC00F9D80001C0B2547803431B040025092C45
:1010DC0007D90A3C0135E4B2EDB2092CF9D82D013F
:1010EC00EDB290782C43240209284DD900250A38FA
:1010FC000135C0B2EDB20928F9D82F01FFB2074370
:10110C00107B002509283DD90A380135C0B2EDB253
:10111C000928F9D82D01EDB2AC46556892681543F3
:10112C002E4362463343234310433B43020613438F
:10113C0012E0402003401DD1D3705468956890781C
:10114C002C4320431478240420435478127B24022B
:10115C0020431206104303430C4ACA2757625327F5
:10116C00576280277F00B9420AD01362074BFF22D7
:10117C005A62F0BDD3781B04DFE7D678360496E7C5
:10118C00D361F3E7AC46C8E70027B8E70028004076
:10119C0000230122C3700370437083708360027359
:1011AC0043607047F0B58023474680B45B0099429A
:1011BC003ED0214B1B6AD9B27F270F408846802630
:1011CC008021C903F6051E401940090C96601B4E80
:1011DC009D025C04D1709900AD0E640E890E3340F3
:1011EC001570547097701173536000281DD12B0922
:1011FC0098001B1858000F231D4045192009157025
:10120C008500401940003F091C400419B8003F18E4
:10121C00080954708400464600197F001E404000A7
:10122C001940BE1941189670117304BC9046F0BD5C
:10123C00014BDB69BFE7C0460028004080808080FE
:10124C0010B50023144C82B00193CA23636253235C
:10125C006362A36800291BD183438021A360000A29
:10126C00890101E0002A08D1E3681A1C019B0240A5
:10127C0001330193019B8B42F4D1074BDB6818407F
:10128C00431E9841C0B2044BFF225A6202B010BDFB
:10129C001843A0600120F6E700280040084B10B569
:1012AC00CA245C6253245C62802411436400A04213
:1012BC0004D09964024BFF225A6210BD5964F9E7BD
:1012CC000028004080235B00984204D0044B986CAB
:1012DC004004400C7047024B586C4004400CF9E73A
:1012EC0000280040074BCA225A6253225A629A685D
:1012FC0007218A439A609A681043FF2298605A62C9
:10130C007047C04600280040044BCA225A62532240
:10131C005A62FF2258615A627047C046002800404A
:10132C00024B58690004000C7047C046002800406E
:10133C0010B50023154C82B00193CA23636253236A
:10134C006362A26800281AD1114B80211340A3605C
:10135C000420890101E0002A08D1E368021C1A402C
:10136C00019B01330193019B8B42F4D1074BD8684D
:10137C004007C00F054BFF225A6202B010BD8023FC
:10138C00DB001343A3600120F4E7C04600280040B3
:10139C00FFFBFFFF084BCA2210B55A6253225A6258
:1013AC009C68064A22409A609A6811430843FF22BF
:1013BC0098605A6210BDC04600280040FFFFFBFF3A
:1013CC00024B80209B68C0021840704700280040E8
:1013DC00084BCA2210B55A6253225A629C68064ABC
:1013EC0022409A609A6811430843FF2298605A621F
:1013FC0010BDC04600280040FFFF8FFF70B50C4C9D
:10140C00CA23636253236362061C0D1CFFF704FCA2
:10141C00021C0020002A06D03543A561E368802217
:10142C009343E3600120024AFF21516270BDC04624
:10143C000028004038B5104CCA2363625323636202
:10144C00051CFFF7E9FB021C0020002A0BD0002D25
:10145C000DD1A36880229343A360074B8021DA68E7
:10146C0001208A43DA60044AFF21516238BDA26828
:10147C0080231343A360F0E700280040094BCA22E5
:10148C005A6253225A629968002806D1064A0A40C9
:10149C009A60044BFF225A627047802212040A435E
:1014AC009A60F6E700280040FFFF7FFF074BCA2237
:1014BC005A6253225A629968054A0A409A609A689D
:1014CC001043FF2298605A627047C04600280040C3
:1014DC00FFFFF7FF70B5124ECA237362532373627A
:1014EC008025F3686D022B420BD0F3682B4208D099
:1014FC0080235B0102E0013B002B02D0F4682C42FC
:10150C00F9D1074C0023E568EE0303D411430843DB
:10151C00E0630123024AFF21181C516270BDC046D2
:10152C00002800400A4B9A680A4B1340002909D145
:10153C001843074BCA225A6253225A62FF22986000
:10154C005A6270478022120113431843F1E7C046D8
:10155C0000280040F7F7FFFF30B5284C236B646B75
:10156C009D02AD0E0D705D046D0E4D707F251D40FE
:10157C008D708025ED032B401B0CCB700023D3709A
:10158C00E304DB0E53703F2323402404640F937059
:10159C001470002830D1087803099C001B195C00DA
:1015AC000F2318402018087048780409A500641906
:1015BC00640018402018487088780409A500641944
:1015CC0064001840201888705178080984000019AC
:1015DC004000194041185170917808098400001995
:1015EC0040001940411891701178080984000019C5
:1015FC0040000B40C318137030BDC046002800409B
:10160C00014B986B7047C04600280040054B4000CA
:10161C001A6C002902D010431864704782431A6474
:10162C00FBE7C04600280040044B1A6C002902D18D
:10163C0082431A64704710431864FBE7002800408B
:10164C00044B054A196C0A401A641A6C104318644E
:10165C007047C04600280040FFE7FFFF044B054AD7
:10166C00196C0A401A641A6C104318647047C0460F
:10167C0000280040FFF8FFFF044B054A196C0A4094
:10168C001A641A6C104318647047C0460028004056
:10169C00FF9FFFFF064B002804D11A6C80218A4360
:1016AC001A647047196C80220A431A64F9E7C04621
:1016BC0000280040064B196C002804D1802212022D
:1016CC000A431A647047034A0A401A64FAE7C04690
:1016DC0000280040FF7FFFFF82B000230193054BE1
:1016EC0080000193019BC0180190019B196002B00E
:1016FC007047C0465028004082B000230193054B30
:10170C0080000193019BC0180190019B186802B0E6
:10171C007047C04650280040044B054A196C0A40DB
:10172C001A641A6C104318647047C04600280040B5
:10173C00FFFFFBFF38B5154DCA236B6253236B6259
:10174C00EA68082313420CD0EA68134209D08023BC
:10175C009B01082402E0013B002B02D0EA681442F2
:10176C00F9D10A4B0022DC68250702D49C68E506F7
:10177C0004D5064BFF21101C596238BD0843D862B2
:10178C00FFF79EFA431E9841C2B2F2E700280040D0
:10179C00104BCA2210B55A6253225A6200290ED13C
:1017AC0099680422041C9443A1439960196C10405D
:1017BC000A1C82431A64074BFF225A6210BD9968B7
:1017CC000422041C944321439960196C1040084373
:1017DC001864F0E700280040044BDA68044B13400F
:1017EC001840431E9841C0B27047C04600280040C4
:1017FC007FFF0100054B064AD96810408022104338
:10180C00C0430A400243DA607047C04600280040DB
:10181C007FFF01000C4A031C106C30B59168D46832
:10182C00042202401D1C980CC540E80B02401940D4
:10183C000A430020002A06D024041809240C204056
:10184C00431E9841C0B230BD00280040054B10B576
:10185C000103DC688022090C1143C94322400A436E
:10186C00DA6010BD0028004008B501200121FFF707
:10187C004BF901200021FFF747F908BD044B00226A
:10188C001A605A609A60DA601A615A619A617047FC
:10189C00047C0040014B18607047C04600000140BA
:1018AC00024BC0201B6880001840704700000140AC
:1018BC00064B002804D15A6801218A435A607047AC
:1018CC00596801220A435A60F9E7C04600000140FA
:1018DC0003230B40084A89088900891810B58A68C7
:1018EC009B000F249C40A2438A608A689840031C8A
:1018FC0013438B6010BDC04600000140034B044AEB
:10190C0019680A40104318607047C046047C0040B8
:10191C00FFFFFCFF0E4B1B680343420302D50F2253
:10192C0093430B43020303D5F02293430A01134361
:10193C00C20203D5074A13400A021343820203D59D
:10194C00054A090313400B43014A13607047C04614
:10195C00047C0040FFF0FFFFFF0FFFFF044B1A68F1
:10196C00002902D182431A60704710431860FBE7CC
:10197C00007C0040044B1A68002902D11043186007
:10198C00704782431A60FBE7007C0040C30F4000A5
:10199C004008002906D0002B0BD00B4B5A68104383
:1019AC00586005E0002B09D1074B9A6882439A6076
:1019BC007047054B9A6810439860F9E7024B5A68D8
:1019CC0082435A60F4E7C046047C0040064B002872
:1019DC0004D15A68520052085A60704759688022E4
:1019EC0012060A435A60F8E7047C00402D4B01288C
:1019FC000FD0022813D0032819D004282CD0052886
:101A0C0024D0062838D0002A32D19A691143996122
:101A1C007047002A11D0DA688A43DA60F8E7002AA6
:101A2C000FD0DA68C94309041140D960F0E7002AE5
:101A3C001AD01A698A431A61EAE7DA681143D96045
:101A4C00E6E7DA6809041143D960E1E7002A20D0FF
:101A5C005A698A435A61DBE7002A15D01A69C943CF
:101A6C00090411401961D3E71A6911431961CFE7D1
:101A7C009A698A439A61CBE7002A0ED05A69C94306
:101A8C00090411405961C3E71A690904114319612A
:101A9C00BEE75A6911435961BAE75A6909041143FF
:101AAC005961B5E7047C004003B471464908400015
:101ABC004900095A49008E4403BC7047002934D0B0
:101ACC000123002210B488422CD301242407A14204
:101ADC0004D2814202D209011B01F8E7E400A142C1
:101AEC0004D2814202D249005B00F8E7884201D35C
:101AFC00401A1A434C08A04202D3001B5C08224334
:101B0C008C08A04202D3001B9C082243CC08A042A4
:101B1C0002D3001BDC082243002803D01B0901D090
:101B2C000909E3E7101C10BC7047002801D0002005
:101B3C00C04307B4024802A14018029003BDC0463E
:101B4C00D90000000029F0D003B5FFF7B9FF0EBC97
:101B5C004243891A1847C046002941D010B4041CCE
:101B6C004C40A44601230022002900D549420028FC
:101B7C0000D5404288422CD301242407A14204D230
:101B8C00814202D209011B01F8E7E400A14204D210
:101B9C00814202D249005B00F8E7884201D3401A27
:101BAC001A434C08A04202D3001B5C0822438C0849
:101BBC00A04202D3001B9C082243CC08A04202D3B3
:101BCC00001BDC082243002803D01B0901D00909A3
:101BDC00E3E7101C6446002C00D5404210BC704753
:101BEC00002806D003DB0020C043400801E0802021
:101BFC00000607B4024802A14018029003BDC0467B
:101C0C00190000000029EBD003B5FFF7A7FF0EBCAD
:101C1C004243891A1847C0467047C04608B5012090
:101C2C00FEF752FE2120FEF7B7FF0028FAD0012064
:101C3C00FEF77EFEC0200002FEF728FE3F200121A9
:101C4C00FEF732FF14480121FEF746FF012113482D
:101C5C00FEF736FF0120FEF71BFD0120FEF71EFFED
:101C6C000020FEF71BFF0120FEF734FE4920FEF793
:101C7C0093FF0028FAD080204002FEF7E9FE0120F5
:101C8C00FEF706FF0020FEF7D5FD3120FEF784FF9E
:101C9C00002800D0FEE708BD000200900102000001
:101CAC001FB5802001214005FEF716FF0120FEF72D
:101CBC00EFFC0120FEF7F2FE0020FEF7EFFE012004
:101CCC00FEF708FE4920FEF767FF0028FAD08020B7
:101CDC004002FEF7BDFE7F230024029301A8FF23E0
:101CEC0003930194FEF7BCFF6B466946201CDC7025
:101CFC001C705C709C70FFF78FF80120FEF7C8FE1B
:101D0C00FEF7DEFF1FBD000070B58024A40288B072
:101D1C00201CFEF765FA002502A802940822012473
:101D2C00057142718471FEF7F9F901A8292202703C
:101D3C0045708570C4708026FEF742FC04A8FFF73E
:101D4C0027FAA640084B04AA281C311C0593FFF760
:101D5C00A5F98020211C4001FFF71AFD301C211C25
:101D6C00FFF76EFA08B070BD8080808070B5061CDD
:101D7C000D1C541E002C11DB002D0BD0281C0A212D
:101D8C00FFF740FF30313155281C0A21FFF7E4FEE4
:101D9C00051C01E030233355013CEBE770BD00001E
:101DAC00154B13B51C68E121E217A4185440201CF4
:101DBC000901FFF7D1FE0222011C6846FFF7D6FF8E
:101DCC00201C3C21FFF7C8FE3C21FFF71BFF684697
:101DDC0002220230FFF7CAFF201C3C21FFF712FF42
:101DEC0001A80222FFF7C2FF00236A4668469371DE
:101DFC0000F0B8FB13BDC0461C00002008B5084B12
:101E0C0080225A8340225A83064BE1211A688900AA
:101E1C0052181A60FFF7C4FF0120FEF7E1F908BD64
:101E2C00000402401C00002008B5074B1A68013A58
:101E3C001A60FFF7B5FF80204001FFF707FD8020F7
:101E4C008002FEF7CDF908BD1C00002030B587B02C
:101E5C00FFF7E4FE012502A90024032323484B715C
:101E6C0002950C71CC71FEF733FA211C201CFFF784
:101E7C002FFD04A808234371857104950471FEF7A6
:101E8C004DF901A8C5700623194D03700F2343703B
:101E9C008370FEF795FB00F0BBF800F091FB00F0AF
:101EAC007BFBFFF7BBFE2A68A023DB0113432B60EF
:101EBC00FFF7F6FEFFF728FF80236B8340236B832D
:101ECC000C4B1B68002BFBDC80224023002C03D026
:101EDC002A8300246B8302E06A8301242B83064B44
:101EEC00C046013B002BFBD1EAE7C0460000024094
:101EFC00000402401C000020E09304003C4B37B56A
:101F0C001968802252000A431A609968394A0A40BB
:101F1C009A601968384A0A401A601968374A0A40A8
:101F2C001A609A6836490A409A600022DA60009278
:101F3C00019218688022520202431A60081C196828
:101F4C008022920211400191009901310091019976
:101F5C00002904D1009CA021C9008C42EFD1196842
:101F6C000A4000D0012201920199012904D0254B8D
:101F7C00802212059A6037BD234A042514682C432D
:101F8C001460146802252C431460146821431160FA
:101F9C00596A802252050A435A6280211B4A090160
:101FAC0011605168CC06FCD49A689A609A689A6061
:101FBC009A689A6099689122014099609968120414
:101FCC000A439A601968802252040A431A601968FD
:101FDC00074A8801FBD5906803218843906090687C
:101FEC000143916099680C220A400C2AFAD1BEE791
:101FFC00003802400CC0FF88FEFFFEEEFFFFFBFF27
:10200C00FFFF02FF00ED00E0003C024000700040CA
:10201C0037B501213F20FEF747FD6846FEF7AEF9C4
:10202C00564C574B02250093201C6B4669461D717C
:10203C00FEF74EF9201C01210B22FEF7DFF9291CBB
:10204C00201C0B22FEF7DAF9201C03210B22FEF7D1
:10205C00D5F9201C08210B22FEF7D0F9201C0921F0
:10206C000B22FEF7CBF9201C0A210B22FEF7C6F936
:10207C00201C0B220F21434CFEF7C0F9424B201CB5
:10208C00009369466B461D71FEF722F9201C032153
:10209C000B22FEF7B3F9201C04210B22FEF7AEF93C
:1020AC00201C05210B22FEF7A9F9201C08210B226C
:1020BC00FEF7A4F9201C09210B22FEF79FF9201C26
:1020CC000A210B22FEF79AF90B21201C0A1CFEF7A1
:1020DC0095F9201C0C210B22FEF790F9201C0D21E8
:1020EC000B22FEF78BF9201C0E210B22FEF786F932
:1020FC00201C0B220F21254CFEF780F9244B201CB1
:10210C00009369466B461D71FEF7E2F8201C002116
:10211C000B22FEF773F9201C01210B22FEF76EF93E
:10212C00291C201C0B22FEF769F9201C03210B2211
:10213C00FEF764F9201C06210B22FEF75FF9201C28
:10214C0007210B22FEF75AF9201C08210B22FEF75F
:10215C0055F9201C09210B22FEF750F9201C0A21ED
:10216C000B22FEF74BF90B210A1C201CFEF746F93B
:10217C003F200021FEF798FC37BDC046000002400E
:10218C000E8700000004024038FF000000080240E7
:10219C00CF0F0000094B0A4A596A11405962D96A9B
:1021AC000A40DA62074A586A1178090301435962F6
:1021BC005278D96A12030A43DA627047002400404D
:1021CC00FF5FFFFF20000020F7B500781F1C2F28B1
:1021DC0020D00CD825281FD003D80023202830D09D
:1021EC001DE02A282CD0A0232D2816D017E06D280E
:1021FC000CD005D8392812D830384000CB4B1DE014
:10220C006E2805D0FF280AD1C94B1AE0C94B18E03B
:10221C00C94B16E0C02314E0B3231B0211E0041CCD
:10222C00413CE5B20023192D02D8C44B6400E35A9B
:10223C006138C4B2192C04D8C04B4000C35A00E01A
:10224C00BF4B002901D002210B43002A01D02022D0
:10225C0013431C130194E6B21D0A1C11DBB2E4B249
:10226C0000930420FEF77EF90028FAD1781E052889
:10227C0000D955E1B34B5969FFF716FC0600320043
:10228C007900A900D9000B01AF4A371C11405961E4
:10229C00D9691140D961596A11405962D96A0A4009
:1022AC000C21DA620F40032258691640BF063E43E8
:1022BC0006435E612E1C0E40D8691540B6063543A8
:1022CC000543DD61251C0D40586AAD0614402C43B6
:1022DC00009D04435C622940D86A89062A40D6E0F6
:1022EC009A4A301C11405961D9691140D961596A17
:1022FC0011405962D96A0A40DA6202210C229446D2
:10230C0008403240120680011043012216405F69DA
:10231C008E40064337435F6166462F1C0F402E40AC
:10232C00BF0115403606D8693E43AF003E433043EB
:10233C006546261C0E4025402D06B601D86114407A
:10234C002E43586AA500341C2C4304435C62009C49
:10235C0065462140009F2C402406890121433A40C8
:10236C009400D86A0A1C22430243DA62D8E0784A05
:10237C00371C11405961D9691140D961596A114012
:10238C005962D96A0A40DA6203210C220F401640C6
:10239C0058693F02B6053E4306435E612E1C0E4053
:1023AC001540D8693602AD0535430543DD61251C62
:1023BC000D401440586A2D02A4052C4304435C6262
:1023CC00009CD86A21402240090292055FE0614AD4
:1023DC00371C11405961D9691140D961596A1140B2
:1023EC005962D96A0A40DA6203210C220F40164066
:1023FC005869BF02B6043E4306435E612E1C0E4074
:10240C001540D869B602AD0435430543DD61251C82
:10241C000D401440586AAD02A4042C43009D0443A3
:10242C005C6229402A40D86A890292042FE04A4A09
:10243C00371C11405961D9690A40DA61596A474A17
:10244C0011405962D96A0A40DA6203210C220F400A
:10245C00164058693F0336043E4306435E612940EB
:10246C001540D86991402D0429430143D961251C9D
:10247C0001210D401440586A95402404009F2C43C0
:10248C0004435C6239409140D86A3A4012040A43D2
:10249C006AE7334A301C11405961D969019F1140D8
:1024AC00D961596A11405962D96A0A40DA6259698C
:1024BC0004228C46082110400E40C00376030643CC
:1024CC00B807000C0643674637435F612E1C2F1C70
:1024DC000F401640F6037F033743AD07D8692E0C27
:1024EC003D1C35430543271C201C0F401040C003E6
:1024FC007F0307430120DD6104405D6AA6033C1C99
:10250C0034432C43009D5C6229402A404903D2038A
:10251C0028400A43DC6A8503101C28432043D862F8
:10252C00FFF738FEFEF70CF8F7BDC046042700088D
:10253C00DDFF000010B2000010220000D0260008C1
:10254C00DDA0000000240040FCFFFFCF03FFFFF3E1
:10255C00FFFCFFFCFFF3CFFFFFCFF3FFFFEFF3FF19
:10256C00FF3FFCFF70B5051C041C0122531BE31834
:10257C00DBB20026072B0DD82178B1420AD0191CEA
:10258C001140201C002901D0311C321CFFF71CFE0D
:10259C000134EAE770BD000008B50420FDF7E2FF46
:1025AC000028FAD1054A83009B18013000225A609A
:1025BC001028F7D1FDF7C4FF08BDC0461024004019
:1025CC0030B5F02387B09B030024029340250C23E5
:1025DC0001A80393019404950594FDF72DFF0120A8
:1025EC00FDF768FF80204001FDF794FF201CFDF7EC
:1025FC0073FF281CFDF764FFFDF74EFF0120FDF76C
:10260C0045FF0120FDF7AEFF0028FAD01020FDF7A2
:10261C00A9FF0028FAD080210020C901FDF76AFF2C
:10262C00FFF7BAFF07B030BD002100F004B80D4B26
:10263C005B58435004310C480C4B42189A42FFF43F
:10264C00F6AF0B4A00F003B8002342F8043B094BE9
:10265C009A42FFF4F9AFFFF751FC00F00FF8FFF7C7
:10266C00F5FB7047302700080000002020000020F8
:10267C002000002024000020FFF7FEBF70B50D4E97
:10268C000D4D0024AD1BAD1005D0A300F358013443
:10269C009847A542F9D100F039F8084E084D0024AE
:1026AC00AD1BAD1005D0A300F35801349847A542DB
:1026BC00F9D170BD00000000000000000000000017
:1026CC000000000000FE1467001D1447009D009CD4
:1026DC00003F00FA1400005341980019485A095A57
:1026EC00005F00FC015F01FC00AF1404005BC0182C
:1026FC00815AC9005800C005005F004200F5006710
:10270C0000EA00AF00BF004600FF00EFF8B5C0467E
:10271C00F8BC08BC9E467047F8B5C046F8BC08BC6F
:04272C009E4670470E
:10273000030406080C101820300000000000000000
:10274000010203040102030406070809100E000039
:040000050800263594
:00000001FF
